{
  "_format": "hh-sol-artifact-1",
  "contractName": "RickdiculusStreams",
  "sourceName": "contracts/RickdiculusStreams.sol",
  "abi": [
    {
      "inputs": [
        {
          "internalType": "contract ISuperTokenFactory",
          "name": "factory",
          "type": "address"
        },
        {
          "internalType": "contract ISuperfluid",
          "name": "host",
          "type": "address"
        }
      ],
      "stateMutability": "nonpayable",
      "type": "constructor"
    },
    {
      "inputs": [],
      "name": "NotApproved",
      "type": "error"
    },
    {
      "inputs": [],
      "name": "NotPermitted",
      "type": "error"
    },
    {
      "inputs": [],
      "name": "NotTokenOwner",
      "type": "error"
    },
    {
      "anonymous": false,
      "inputs": [
        {
          "indexed": false,
          "internalType": "address",
          "name": "receiver",
          "type": "address"
        },
        {
          "indexed": true,
          "internalType": "address",
          "name": "erc721Token",
          "type": "address"
        },
        {
          "indexed": true,
          "internalType": "uint256",
          "name": "tokenId",
          "type": "uint256"
        },
        {
          "indexed": true,
          "internalType": "address",
          "name": "superFractionalized",
          "type": "address"
        },
        {
          "indexed": false,
          "internalType": "uint256",
          "name": "initialSupply",
          "type": "uint256"
        }
      ],
      "name": "Fractionalized",
      "type": "event"
    },
    {
      "inputs": [
        {
          "internalType": "address",
          "name": "",
          "type": "address"
        }
      ],
      "name": "LoanAgreements",
      "outputs": [
        {
          "internalType": "enum RickdiculusStreams.LoanAgreementState",
          "name": "agreementState",
          "type": "uint8"
        },
        {
          "internalType": "uint256",
          "name": "tokenId",
          "type": "uint256"
        },
        {
          "internalType": "address",
          "name": "borrower",
          "type": "address"
        },
        {
          "internalType": "address",
          "name": "delegator",
          "type": "address"
        },
        {
          "internalType": "uint256",
          "name": "agreementPeriod",
          "type": "uint256"
        },
        {
          "internalType": "uint256",
          "name": "amount",
          "type": "uint256"
        },
        {
          "internalType": "address",
          "name": "tokenAddress",
          "type": "address"
        },
        {
          "internalType": "address",
          "name": "ricksAddress",
          "type": "address"
        }
      ],
      "stateMutability": "view",
      "type": "function"
    },
    {
      "inputs": [
        {
          "internalType": "contract ISuperToken",
          "name": "_superToken",
          "type": "address"
        },
        {
          "internalType": "address",
          "name": "_agreementClass",
          "type": "address"
        },
        {
          "internalType": "bytes32",
          "name": "",
          "type": "bytes32"
        },
        {
          "internalType": "bytes",
          "name": "",
          "type": "bytes"
        },
        {
          "internalType": "bytes",
          "name": "",
          "type": "bytes"
        },
        {
          "internalType": "bytes",
          "name": "_ctx",
          "type": "bytes"
        }
      ],
      "name": "afterAgreementCreated",
      "outputs": [
        {
          "internalType": "bytes",
          "name": "newCtx",
          "type": "bytes"
        }
      ],
      "stateMutability": "nonpayable",
      "type": "function"
    },
    {
      "inputs": [
        {
          "internalType": "contract ISuperToken",
          "name": "_superToken",
          "type": "address"
        },
        {
          "internalType": "address",
          "name": "_agreementClass",
          "type": "address"
        },
        {
          "internalType": "bytes32",
          "name": "",
          "type": "bytes32"
        },
        {
          "internalType": "bytes",
          "name": "",
          "type": "bytes"
        },
        {
          "internalType": "bytes",
          "name": "",
          "type": "bytes"
        },
        {
          "internalType": "bytes",
          "name": "_ctx",
          "type": "bytes"
        }
      ],
      "name": "afterAgreementTerminated",
      "outputs": [
        {
          "internalType": "bytes",
          "name": "newCtx",
          "type": "bytes"
        }
      ],
      "stateMutability": "nonpayable",
      "type": "function"
    },
    {
      "inputs": [
        {
          "internalType": "contract ISuperToken",
          "name": "_superToken",
          "type": "address"
        },
        {
          "internalType": "address",
          "name": "_agreementClass",
          "type": "address"
        },
        {
          "internalType": "bytes32",
          "name": "",
          "type": "bytes32"
        },
        {
          "internalType": "bytes",
          "name": "",
          "type": "bytes"
        },
        {
          "internalType": "bytes",
          "name": "",
          "type": "bytes"
        },
        {
          "internalType": "bytes",
          "name": "_ctx",
          "type": "bytes"
        }
      ],
      "name": "afterAgreementUpdated",
      "outputs": [
        {
          "internalType": "bytes",
          "name": "newCtx",
          "type": "bytes"
        }
      ],
      "stateMutability": "nonpayable",
      "type": "function"
    },
    {
      "inputs": [
        {
          "internalType": "contract ISuperToken",
          "name": "",
          "type": "address"
        },
        {
          "internalType": "address",
          "name": "",
          "type": "address"
        },
        {
          "internalType": "bytes32",
          "name": "",
          "type": "bytes32"
        },
        {
          "internalType": "bytes",
          "name": "",
          "type": "bytes"
        },
        {
          "internalType": "bytes",
          "name": "",
          "type": "bytes"
        }
      ],
      "name": "beforeAgreementCreated",
      "outputs": [
        {
          "internalType": "bytes",
          "name": "",
          "type": "bytes"
        }
      ],
      "stateMutability": "view",
      "type": "function"
    },
    {
      "inputs": [
        {
          "internalType": "contract ISuperToken",
          "name": "",
          "type": "address"
        },
        {
          "internalType": "address",
          "name": "",
          "type": "address"
        },
        {
          "internalType": "bytes32",
          "name": "",
          "type": "bytes32"
        },
        {
          "internalType": "bytes",
          "name": "",
          "type": "bytes"
        },
        {
          "internalType": "bytes",
          "name": "",
          "type": "bytes"
        }
      ],
      "name": "beforeAgreementTerminated",
      "outputs": [
        {
          "internalType": "bytes",
          "name": "",
          "type": "bytes"
        }
      ],
      "stateMutability": "view",
      "type": "function"
    },
    {
      "inputs": [
        {
          "internalType": "contract ISuperToken",
          "name": "",
          "type": "address"
        },
        {
          "internalType": "address",
          "name": "",
          "type": "address"
        },
        {
          "internalType": "bytes32",
          "name": "",
          "type": "bytes32"
        },
        {
          "internalType": "bytes",
          "name": "",
          "type": "bytes"
        },
        {
          "internalType": "bytes",
          "name": "",
          "type": "bytes"
        }
      ],
      "name": "beforeAgreementUpdated",
      "outputs": [
        {
          "internalType": "bytes",
          "name": "",
          "type": "bytes"
        }
      ],
      "stateMutability": "view",
      "type": "function"
    },
    {
      "inputs": [],
      "name": "cfaV1",
      "outputs": [
        {
          "internalType": "contract ISuperfluid",
          "name": "host",
          "type": "address"
        },
        {
          "internalType": "contract IConstantFlowAgreementV1",
          "name": "cfa",
          "type": "address"
        }
      ],
      "stateMutability": "view",
      "type": "function"
    },
    {
      "inputs": [
        {
          "internalType": "address",
          "name": "_tokenAddress",
          "type": "address"
        },
        {
          "internalType": "string",
          "name": "_name",
          "type": "string"
        },
        {
          "internalType": "string",
          "name": "_symbol",
          "type": "string"
        },
        {
          "internalType": "uint256",
          "name": "_tokenId",
          "type": "uint256"
        },
        {
          "internalType": "uint256",
          "name": "_initialSupply",
          "type": "uint256"
        },
        {
          "internalType": "uint256",
          "name": "_amount",
          "type": "uint256"
        }
      ],
      "name": "createLoanAgreement",
      "outputs": [],
      "stateMutability": "nonpayable",
      "type": "function"
    },
    {
      "inputs": [
        {
          "internalType": "uint256",
          "name": "_amount",
          "type": "uint256"
        },
        {
          "internalType": "address",
          "name": "_ricksAddress",
          "type": "address"
        }
      ],
      "name": "delegate",
      "outputs": [],
      "stateMutability": "nonpayable",
      "type": "function"
    },
    {
      "inputs": [],
      "name": "fetchAllAgreements",
      "outputs": [
        {
          "components": [
            {
              "internalType": "enum RickdiculusStreams.LoanAgreementState",
              "name": "agreementState",
              "type": "uint8"
            },
            {
              "internalType": "uint256",
              "name": "tokenId",
              "type": "uint256"
            },
            {
              "internalType": "address",
              "name": "borrower",
              "type": "address"
            },
            {
              "internalType": "address",
              "name": "delegator",
              "type": "address"
            },
            {
              "internalType": "uint256",
              "name": "agreementPeriod",
              "type": "uint256"
            },
            {
              "internalType": "uint256",
              "name": "amount",
              "type": "uint256"
            },
            {
              "internalType": "address",
              "name": "tokenAddress",
              "type": "address"
            },
            {
              "internalType": "address",
              "name": "ricksAddress",
              "type": "address"
            }
          ],
          "internalType": "struct RickdiculusStreams.LoanAgreement[]",
          "name": "",
          "type": "tuple[]"
        }
      ],
      "stateMutability": "view",
      "type": "function"
    },
    {
      "inputs": [
        {
          "internalType": "uint256",
          "name": "",
          "type": "uint256"
        }
      ],
      "name": "loanIdsToAgreement",
      "outputs": [
        {
          "internalType": "enum RickdiculusStreams.LoanAgreementState",
          "name": "agreementState",
          "type": "uint8"
        },
        {
          "internalType": "uint256",
          "name": "tokenId",
          "type": "uint256"
        },
        {
          "internalType": "address",
          "name": "borrower",
          "type": "address"
        },
        {
          "internalType": "address",
          "name": "delegator",
          "type": "address"
        },
        {
          "internalType": "uint256",
          "name": "agreementPeriod",
          "type": "uint256"
        },
        {
          "internalType": "uint256",
          "name": "amount",
          "type": "uint256"
        },
        {
          "internalType": "address",
          "name": "tokenAddress",
          "type": "address"
        },
        {
          "internalType": "address",
          "name": "ricksAddress",
          "type": "address"
        }
      ],
      "stateMutability": "view",
      "type": "function"
    },
    {
      "inputs": [
        {
          "internalType": "address",
          "name": "_ricksAddress",
          "type": "address"
        }
      ],
      "name": "reconstitute",
      "outputs": [],
      "stateMutability": "nonpayable",
      "type": "function"
    },
    {
      "inputs": [
        {
          "internalType": "address",
          "name": "_ricksAddress",
          "type": "address"
        }
      ],
      "name": "repay",
      "outputs": [],
      "stateMutability": "nonpayable",
      "type": "function"
    },
    {
      "inputs": [
        {
          "internalType": "uint256",
          "name": "_amount",
          "type": "uint256"
        },
        {
          "internalType": "address",
          "name": "_ricksAddress",
          "type": "address"
        }
      ],
      "name": "withdraw",
      "outputs": [],
      "stateMutability": "nonpayable",
      "type": "function"
    }
  ],
  "bytecode": "0x60a06040523480156200001157600080fd5b5060405162006cd738038062006cd783398181016040528101906200003791906200088c565b8173ffffffffffffffffffffffffffffffffffffffff1660808173ffffffffffffffffffffffffffffffffffffffff1681525050620000e5736c9fb0d5bd9429eb9cd96b85b81d872281771e6b7fffffffffffffffffffffffffffffffffffffffffffffffffffffffffffffffff739a753f0f7886c9fbf63cf59d0d4423c5eface95b73ffffffffffffffffffffffffffffffffffffffff166200048d60201b62002250179092919060201c565b6200015f736c9fb0d5bd9429eb9cd96b85b81d872281771e6b7fffffffffffffffffffffffffffffffffffffffffffffffffffffffffffffffff73dd4f3ee61466c4158d394d57f3d4c397e91fbc5173ffffffffffffffffffffffffffffffffffffffff166200048d60201b62002250179092919060201c565b600073ffffffffffffffffffffffffffffffffffffffff168173ffffffffffffffffffffffffffffffffffffffff161415620001a0576200019f620008d3565b5b80600360006101000a81548173ffffffffffffffffffffffffffffffffffffffff021916908373ffffffffffffffffffffffffffffffffffffffff1602179055508073ffffffffffffffffffffffffffffffffffffffff1663b6d200de7fa9214cc96615e0085d3bb077758db69497dc2dce3b2b1e97bc93c3d18d83efd36040518263ffffffff1660e01b81526004016200023c91906200091d565b602060405180830381865afa1580156200025a573d6000803e3d6000fd5b505050506040513d601f19601f820116820180604052508101906200028091906200097f565b600460006101000a81548173ffffffffffffffffffffffffffffffffffffffff021916908373ffffffffffffffffffffffffffffffffffffffff1602179055506040518060400160405280600360009054906101000a900473ffffffffffffffffffffffffffffffffffffffff1673ffffffffffffffffffffffffffffffffffffffff168152602001600460009054906101000a900473ffffffffffffffffffffffffffffffffffffffff1673ffffffffffffffffffffffffffffffffffffffff16815250600160008201518160000160006101000a81548173ffffffffffffffffffffffffffffffffffffffff021916908373ffffffffffffffffffffffffffffffffffffffff16021790555060208201518160010160006101000a81548173ffffffffffffffffffffffffffffffffffffffff021916908373ffffffffffffffffffffffffffffffffffffffff160217905550905050600064100000000064040000000064010000000060011717179050600360009054906101000a900473ffffffffffffffffffffffffffffffffffffffff1673ffffffffffffffffffffffffffffffffffffffff1663ad3915c8826040518263ffffffff1660e01b8152600401620004509190620009cc565b600060405180830381600087803b1580156200046b57600080fd5b505af115801562000480573d6000803e3d6000fd5b5050505050505062000de7565b60008114806200051d575060008373ffffffffffffffffffffffffffffffffffffffff1663dd62ed3e30856040518363ffffffff1660e01b8152600401620004d7929190620009fa565b602060405180830381865afa158015620004f5573d6000803e3d6000fd5b505050506040513d601f19601f820116820180604052508101906200051b919062000a58565b145b6200055f576040517f08c379a0000000000000000000000000000000000000000000000000000000008152600401620005569062000b11565b60405180910390fd5b620005ea8363095ea7b360e01b84846040516024016200058192919062000b33565b604051602081830303815290604052907bffffffffffffffffffffffffffffffffffffffffffffffffffffffff19166020820180517bffffffffffffffffffffffffffffffffffffffffffffffffffffffff8381831617835250505050620005ef60201b60201c565b505050565b6200061b8273ffffffffffffffffffffffffffffffffffffffff166200077d60201b6200239f1760201c565b6200065d576040517f08c379a0000000000000000000000000000000000000000000000000000000008152600401620006549062000bb0565b60405180910390fd5b6000808373ffffffffffffffffffffffffffffffffffffffff168360405162000687919062000c55565b6000604051808303816000865af19150503d8060008114620006c6576040519150601f19603f3d011682016040523d82523d6000602084013e620006cb565b606091505b50915091508162000713576040517f08c379a00000000000000000000000000000000000000000000000000000000081526004016200070a9062000cbe565b60405180910390fd5b60008151111562000777578080602001905181019062000734919062000d1d565b62000776576040517f08c379a00000000000000000000000000000000000000000000000000000000081526004016200076d9062000dc5565b60405180910390fd5b5b50505050565b60008060007fc5d2460186f7233c927e7db2dcc703c0e500b653ca82273b7bfad8045d85a47060001b9050833f9150808214158015620007c057506000801b8214155b92505050919050565b600080fd5b600073ffffffffffffffffffffffffffffffffffffffff82169050919050565b6000620007fb82620007ce565b9050919050565b60006200080f82620007ee565b9050919050565b620008218162000802565b81146200082d57600080fd5b50565b600081519050620008418162000816565b92915050565b60006200085482620007ee565b9050919050565b620008668162000847565b81146200087257600080fd5b50565b60008151905062000886816200085b565b92915050565b60008060408385031215620008a657620008a5620007c9565b5b6000620008b68582860162000830565b9250506020620008c98582860162000875565b9150509250929050565b7f4e487b7100000000000000000000000000000000000000000000000000000000600052600160045260246000fd5b6000819050919050565b620009178162000902565b82525050565b60006020820190506200093460008301846200090c565b92915050565b60006200094782620007ee565b9050919050565b62000959816200093a565b81146200096557600080fd5b50565b60008151905062000979816200094e565b92915050565b600060208284031215620009985762000997620007c9565b5b6000620009a88482850162000968565b91505092915050565b6000819050919050565b620009c681620009b1565b82525050565b6000602082019050620009e36000830184620009bb565b92915050565b620009f481620007ee565b82525050565b600060408201905062000a116000830185620009e9565b62000a206020830184620009e9565b9392505050565b62000a3281620009b1565b811462000a3e57600080fd5b50565b60008151905062000a528162000a27565b92915050565b60006020828403121562000a715762000a70620007c9565b5b600062000a818482850162000a41565b91505092915050565b600082825260208201905092915050565b7f5361666545524332303a20617070726f76652066726f6d206e6f6e2d7a65726f60008201527f20746f206e6f6e2d7a65726f20616c6c6f77616e636500000000000000000000602082015250565b600062000af960368362000a8a565b915062000b068262000a9b565b604082019050919050565b6000602082019050818103600083015262000b2c8162000aea565b9050919050565b600060408201905062000b4a6000830185620009e9565b62000b596020830184620009bb565b9392505050565b7f5361666545524332303a2063616c6c20746f206e6f6e2d636f6e747261637400600082015250565b600062000b98601f8362000a8a565b915062000ba58262000b60565b602082019050919050565b6000602082019050818103600083015262000bcb8162000b89565b9050919050565b600081519050919050565b600081905092915050565b60005b8381101562000c0857808201518184015260208101905062000beb565b8381111562000c18576000848401525b50505050565b600062000c2b8262000bd2565b62000c37818562000bdd565b935062000c4981856020860162000be8565b80840191505092915050565b600062000c63828462000c1e565b915081905092915050565b7f5361666545524332303a206c6f772d6c6576656c2063616c6c206661696c6564600082015250565b600062000ca660208362000a8a565b915062000cb38262000c6e565b602082019050919050565b6000602082019050818103600083015262000cd98162000c97565b9050919050565b60008115159050919050565b62000cf78162000ce0565b811462000d0357600080fd5b50565b60008151905062000d178162000cec565b92915050565b60006020828403121562000d365762000d35620007c9565b5b600062000d468482850162000d06565b91505092915050565b7f5361666545524332303a204552433230206f7065726174696f6e20646964206e60008201527f6f74207375636365656400000000000000000000000000000000000000000000602082015250565b600062000dad602a8362000a8a565b915062000dba8262000d4f565b604082019050919050565b6000602082019050818103600083015262000de08162000d9e565b9050919050565b608051615ed462000e036000396000612de90152615ed46000f3fe608060405234801561001057600080fd5b50600436106100f45760003560e01c806378aded4711610097578063c789690a11610066578063c789690a146102ac578063cad3982d146102ca578063d3112b2e14610301578063d86ed3e514610320576100f4565b806378aded4714610228578063877c846014610244578063884d1f40146102605780639f7c73e914610290576100f4565b806330d9c915116100d357806330d9c9151461016157806353c11f991461019157806357663eaa146101c15780635f9e7d77146101f8576100f4565b8062f714ce146100f957806308bbb82414610115578063230dbd2914610131575b600080fd5b610113600480360381019061010e9190613794565b610350565b005b61012f600480360381019061012a9190613794565b610630565b005b61014b600480360381019061014691906138ad565b6109c5565b6040516101589190613a35565b60405180910390f35b61017b60048036038101906101769190613a57565b610b4e565b6040516101889190613a35565b60405180910390f35b6101ab60048036038101906101a691906138ad565b610b8b565b6040516101b89190613a35565b60405180910390f35b6101db60048036038101906101d69190613b13565b610ce9565b6040516101ef989796959493929190613bd5565b60405180910390f35b610212600480360381019061020d9190613a57565b610dbe565b60405161021f9190613a35565b60405180910390f35b610242600480360381019061023d9190613d83565b610dfb565b005b61025e60048036038101906102599190613e48565b611247565b005b61027a60048036038101906102759190613a57565b61175f565b6040516102879190613a35565b60405180910390f35b6102aa60048036038101906102a59190613e48565b61179c565b005b6102b4611cfa565b6040516102c19190613ff4565b60405180910390f35b6102e460048036038101906102df9190613e48565b611fa0565b6040516102f8989796959493929190613bd5565b60405180910390f35b610309612075565b604051610317929190614096565b60405180910390f35b61033a600480360381019061033591906138ad565b6120c7565b6040516103479190613a35565b60405180910390f35b3373ffffffffffffffffffffffffffffffffffffffff16600560008373ffffffffffffffffffffffffffffffffffffffff1673ffffffffffffffffffffffffffffffffffffffff16815260200190815260200160002060030160009054906101000a900473ffffffffffffffffffffffffffffffffffffffff1673ffffffffffffffffffffffffffffffffffffffff1614610420576040517f08c379a00000000000000000000000000000000000000000000000000000000081526004016104179061411c565b60405180910390fd5b60038081111561043357610432613b40565b5b600560008373ffffffffffffffffffffffffffffffffffffffff1673ffffffffffffffffffffffffffffffffffffffff16815260200190815260200160002060000160009054906101000a900460ff16600381111561049557610494613b40565b5b146104d5576040517f08c379a00000000000000000000000000000000000000000000000000000000081526004016104cc90614188565b60405180910390fd5b6000670de0b6b3a7640000836104eb91906141d7565b905073dd4f3ee61466c4158d394d57f3d4c397e91fbc5173ffffffffffffffffffffffffffffffffffffffff166323b872dd3330846040518463ffffffff1660e01b815260040161053e93929190614231565b6020604051808303816000875af115801561055d573d6000803e3d6000fd5b505050506040513d601f19601f8201168201806040525081019061058191906142a0565b50736c9fb0d5bd9429eb9cd96b85b81d872281771e6b73ffffffffffffffffffffffffffffffffffffffff166369328dec739a753f0f7886c9fbf63cf59d0d4423c5eface95b83336040518463ffffffff1660e01b81526004016105e7939291906142cd565b6020604051808303816000875af1158015610606573d6000803e3d6000fd5b505050506040513d601f19601f8201168201806040525081019061062a9190614319565b50505050565b6000600381111561064457610643613b40565b5b600560008373ffffffffffffffffffffffffffffffffffffffff1673ffffffffffffffffffffffffffffffffffffffff16815260200190815260200160002060000160009054906101000a900460ff1660038111156106a6576106a5613b40565b5b146106e6576040517f08c379a00000000000000000000000000000000000000000000000000000000081526004016106dd906143b8565b60405180910390fd5b6000670de0b6b3a7640000836106fc91906141d7565b9050739a753f0f7886c9fbf63cf59d0d4423c5eface95b73ffffffffffffffffffffffffffffffffffffffff166323b872dd3330846040518463ffffffff1660e01b815260040161074f93929190614231565b6020604051808303816000875af115801561076e573d6000803e3d6000fd5b505050506040513d601f19601f8201168201806040525081019061079291906142a0565b50739a753f0f7886c9fbf63cf59d0d4423c5eface95b73ffffffffffffffffffffffffffffffffffffffff1663095ea7b3736c9fb0d5bd9429eb9cd96b85b81d872281771e6b836040518363ffffffff1660e01b81526004016107f69291906143d8565b6020604051808303816000875af1158015610815573d6000803e3d6000fd5b505050506040513d601f19601f8201168201806040525081019061083991906142a0565b50736c9fb0d5bd9429eb9cd96b85b81d872281771e6b73ffffffffffffffffffffffffffffffffffffffff1663617ba037739a753f0f7886c9fbf63cf59d0d4423c5eface95b833360006040518563ffffffff1660e01b81526004016108a2949392919061444a565b600060405180830381600087803b1580156108bc57600080fd5b505af11580156108d0573d6000803e3d6000fd5b5050505033600560008473ffffffffffffffffffffffffffffffffffffffff1673ffffffffffffffffffffffffffffffffffffffff16815260200190815260200160002060030160006101000a81548173ffffffffffffffffffffffffffffffffffffffff021916908373ffffffffffffffffffffffffffffffffffffffff1602179055506001600560008473ffffffffffffffffffffffffffffffffffffffff1673ffffffffffffffffffffffffffffffffffffffff16815260200190815260200160002060000160006101000a81548160ff021916908360038111156109bb576109ba613b40565b5b0217905550505050565b6060898984846109d68483836123ea565b610a15576040517f08c379a0000000000000000000000000000000000000000000000000000000008152600401610a0c906144db565b60405180910390fd5b610a1e83612531565b610a5d576040517f08c379a0000000000000000000000000000000000000000000000000000000008152600401610a549061456d565b60405180910390fd5b600360009054906101000a900473ffffffffffffffffffffffffffffffffffffffff1673ffffffffffffffffffffffffffffffffffffffff163373ffffffffffffffffffffffffffffffffffffffff1614610aed576040517f08c379a0000000000000000000000000000000000000000000000000000000008152600401610ae4906145ff565b60405180910390fd5b610af68e6125cb565b86868080601f016020809104026020016040519081016040528093929190818152602001838380828437600081840152601f19601f820116905080830192505050505050509450505050509998505050505050505050565b60606040517f08c379a0000000000000000000000000000000000000000000000000000000008152600401610b8290614691565b60405180910390fd5b6060600360009054906101000a900473ffffffffffffffffffffffffffffffffffffffff1673ffffffffffffffffffffffffffffffffffffffff163373ffffffffffffffffffffffffffffffffffffffff1614610c1d576040517f08c379a0000000000000000000000000000000000000000000000000000000008152600401610c14906145ff565b60405180910390fd5b610c288a84846123ea565b1580610c3a5750610c3889612531565b155b15610c8b5782828080601f016020809104026020016040519081016040528093929190818152602001838380828437600081840152601f19601f820116905080830192505050505050509050610cdc565b610c948a612689565b82828080601f016020809104026020016040519081016040528093929190818152602001838380828437600081840152601f19601f8201169050808301925050505050505090505b9998505050505050505050565b60066020528060005260406000206000915090508060000160009054906101000a900460ff16908060010154908060020160009054906101000a900473ffffffffffffffffffffffffffffffffffffffff16908060030160009054906101000a900473ffffffffffffffffffffffffffffffffffffffff16908060040154908060050154908060060160009054906101000a900473ffffffffffffffffffffffffffffffffffffffff16908060070160009054906101000a900473ffffffffffffffffffffffffffffffffffffffff16905088565b60606040517f08c379a0000000000000000000000000000000000000000000000000000000008152600401610df290614723565b60405180910390fd5b6000670de0b6b3a764000083610e1191906141d7565b90506000670de0b6b3a764000083610e2991906141d7565b90506000610e3a8989898987612bc4565b9050600060405180610100016040528060006003811115610e5e57610e5d613b40565b5b81526020018881526020013373ffffffffffffffffffffffffffffffffffffffff168152602001600073ffffffffffffffffffffffffffffffffffffffff1681526020016202a30042610eb19190614743565b81526020018481526020018b73ffffffffffffffffffffffffffffffffffffffff1681526020018373ffffffffffffffffffffffffffffffffffffffff16815250905080600560008473ffffffffffffffffffffffffffffffffffffffff1673ffffffffffffffffffffffffffffffffffffffff16815260200190815260200160002060008201518160000160006101000a81548160ff02191690836003811115610f5f57610f5e613b40565b5b02179055506020820151816001015560408201518160020160006101000a81548173ffffffffffffffffffffffffffffffffffffffff021916908373ffffffffffffffffffffffffffffffffffffffff16021790555060608201518160030160006101000a81548173ffffffffffffffffffffffffffffffffffffffff021916908373ffffffffffffffffffffffffffffffffffffffff1602179055506080820151816004015560a0820151816005015560c08201518160060160006101000a81548173ffffffffffffffffffffffffffffffffffffffff021916908373ffffffffffffffffffffffffffffffffffffffff16021790555060e08201518160070160006101000a81548173ffffffffffffffffffffffffffffffffffffffff021916908373ffffffffffffffffffffffffffffffffffffffff1602179055509050506110ab6000612fca565b60006110b76000612fe0565b9050816006600083815260200190815260200160002060008201518160000160006101000a81548160ff021916908360038111156110f8576110f7613b40565b5b02179055506020820151816001015560408201518160020160006101000a81548173ffffffffffffffffffffffffffffffffffffffff021916908373ffffffffffffffffffffffffffffffffffffffff16021790555060608201518160030160006101000a81548173ffffffffffffffffffffffffffffffffffffffff021916908373ffffffffffffffffffffffffffffffffffffffff1602179055506080820151816004015560a0820151816005015560c08201518160060160006101000a81548173ffffffffffffffffffffffffffffffffffffffff021916908373ffffffffffffffffffffffffffffffffffffffff16021790555060e08201518160070160006101000a81548173ffffffffffffffffffffffffffffffffffffffff021916908373ffffffffffffffffffffffffffffffffffffffff1602179055509050505050505050505050505050565b600560008273ffffffffffffffffffffffffffffffffffffffff1673ffffffffffffffffffffffffffffffffffffffff16815260200190815260200160002060020160009054906101000a900473ffffffffffffffffffffffffffffffffffffffff1673ffffffffffffffffffffffffffffffffffffffff163373ffffffffffffffffffffffffffffffffffffffff161461130e576040517f59dc379f00000000000000000000000000000000000000000000000000000000815260040160405180910390fd5b8073ffffffffffffffffffffffffffffffffffffffff166318160ddd6040518163ffffffff1660e01b8152600401602060405180830381865afa158015611359573d6000803e3d6000fd5b505050506040513d601f19601f8201168201806040525081019061137d9190614319565b8173ffffffffffffffffffffffffffffffffffffffff166370a08231336040518263ffffffff1660e01b81526004016113b69190614799565b602060405180830381865afa1580156113d3573d6000803e3d6000fd5b505050506040513d601f19601f820116820180604052508101906113f79190614319565b1461142e576040517f39218f3b00000000000000000000000000000000000000000000000000000000815260040160405180910390fd5b600560008273ffffffffffffffffffffffffffffffffffffffff1673ffffffffffffffffffffffffffffffffffffffff16815260200190815260200160002060060160009054906101000a900473ffffffffffffffffffffffffffffffffffffffff1673ffffffffffffffffffffffffffffffffffffffff1663095ea7b333600560008573ffffffffffffffffffffffffffffffffffffffff1673ffffffffffffffffffffffffffffffffffffffff168152602001908152602001600020600101546040518363ffffffff1660e01b815260040161150d9291906143d8565b600060405180830381600087803b15801561152757600080fd5b505af115801561153b573d6000803e3d6000fd5b50505050600560008273ffffffffffffffffffffffffffffffffffffffff1673ffffffffffffffffffffffffffffffffffffffff16815260200190815260200160002060060160009054906101000a900473ffffffffffffffffffffffffffffffffffffffff1673ffffffffffffffffffffffffffffffffffffffff166323b872dd3033600560008673ffffffffffffffffffffffffffffffffffffffff1673ffffffffffffffffffffffffffffffffffffffff168152602001908152602001600020600101546040518463ffffffff1660e01b815260040161162093929190614231565b600060405180830381600087803b15801561163a57600080fd5b505af115801561164e573d6000803e3d6000fd5b50505050600560008273ffffffffffffffffffffffffffffffffffffffff1673ffffffffffffffffffffffffffffffffffffffff168152602001908152602001600020600080820160006101000a81549060ff021916905560018201600090556002820160006101000a81549073ffffffffffffffffffffffffffffffffffffffff02191690556003820160006101000a81549073ffffffffffffffffffffffffffffffffffffffff0219169055600482016000905560058201600090556006820160006101000a81549073ffffffffffffffffffffffffffffffffffffffff02191690556007820160006101000a81549073ffffffffffffffffffffffffffffffffffffffff0219169055505050565b60606040517f08c379a000000000000000000000000000000000000000000000000000000000815260040161179390614826565b60405180910390fd5b3373ffffffffffffffffffffffffffffffffffffffff16600560008373ffffffffffffffffffffffffffffffffffffffff1673ffffffffffffffffffffffffffffffffffffffff16815260200190815260200160002060020160009054906101000a900473ffffffffffffffffffffffffffffffffffffffff1673ffffffffffffffffffffffffffffffffffffffff161461186c576040517f08c379a000000000000000000000000000000000000000000000000000000000815260040161186390614892565b60405180910390fd5b600073ffffffffffffffffffffffffffffffffffffffff16600560008373ffffffffffffffffffffffffffffffffffffffff1673ffffffffffffffffffffffffffffffffffffffff16815260200190815260200160002060030160009054906101000a900473ffffffffffffffffffffffffffffffffffffffff1673ffffffffffffffffffffffffffffffffffffffff16141561193e576040517f08c379a00000000000000000000000000000000000000000000000000000000081526004016119359061411c565b60405180910390fd5b6002600381111561195257611951613b40565b5b600560008373ffffffffffffffffffffffffffffffffffffffff1673ffffffffffffffffffffffffffffffffffffffff16815260200190815260200160002060000160009054906101000a900460ff1660038111156119b4576119b3613b40565b5b146119f4576040517f08c379a00000000000000000000000000000000000000000000000000000000081526004016119eb906148fe565b60405180910390fd5b6000600560008373ffffffffffffffffffffffffffffffffffffffff1673ffffffffffffffffffffffffffffffffffffffff1681526020019081526020016000206005015490506000600560008473ffffffffffffffffffffffffffffffffffffffff1673ffffffffffffffffffffffffffffffffffffffff16815260200190815260200160002060030160009054906101000a900473ffffffffffffffffffffffffffffffffffffffff169050739a753f0f7886c9fbf63cf59d0d4423c5eface95b73ffffffffffffffffffffffffffffffffffffffff166323b872dd3330856040518463ffffffff1660e01b8152600401611af393929190614231565b6020604051808303816000875af1158015611b12573d6000803e3d6000fd5b505050506040513d601f19601f82011682018060405250810190611b3691906142a0565b50739a753f0f7886c9fbf63cf59d0d4423c5eface95b73ffffffffffffffffffffffffffffffffffffffff1663095ea7b3736c9fb0d5bd9429eb9cd96b85b81d872281771e6b846040518363ffffffff1660e01b8152600401611b9a9291906143d8565b6020604051808303816000875af1158015611bb9573d6000803e3d6000fd5b505050506040513d601f19601f82011682018060405250810190611bdd91906142a0565b50736c9fb0d5bd9429eb9cd96b85b81d872281771e6b73ffffffffffffffffffffffffffffffffffffffff1663573ade81739a753f0f7886c9fbf63cf59d0d4423c5eface95b846002856040518563ffffffff1660e01b8152600401611c469493929190614959565b6020604051808303816000875af1158015611c65573d6000803e3d6000fd5b505050506040513d601f19601f82011682018060405250810190611c899190614319565b506003600560008573ffffffffffffffffffffffffffffffffffffffff1673ffffffffffffffffffffffffffffffffffffffff16815260200190815260200160002060000160006101000a81548160ff02191690836003811115611cf057611cef613b40565b5b0217905550505050565b60606000611d086000612fe0565b90506000808267ffffffffffffffff811115611d2757611d26613c58565b5b604051908082528060200260200182016040528015611d6057816020015b611d4d613630565b815260200190600190039081611d455790505b50905060005b83811015611f96576000600182611d7d9190614743565b9050600060066000838152602001908152602001600020905080604051806101000160405290816000820160009054906101000a900460ff166003811115611dc857611dc7613b40565b5b6003811115611dda57611dd9613b40565b5b8152602001600182015481526020016002820160009054906101000a900473ffffffffffffffffffffffffffffffffffffffff1673ffffffffffffffffffffffffffffffffffffffff1673ffffffffffffffffffffffffffffffffffffffff1681526020016003820160009054906101000a900473ffffffffffffffffffffffffffffffffffffffff1673ffffffffffffffffffffffffffffffffffffffff1673ffffffffffffffffffffffffffffffffffffffff16815260200160048201548152602001600582015481526020016006820160009054906101000a900473ffffffffffffffffffffffffffffffffffffffff1673ffffffffffffffffffffffffffffffffffffffff1673ffffffffffffffffffffffffffffffffffffffff1681526020016007820160009054906101000a900473ffffffffffffffffffffffffffffffffffffffff1673ffffffffffffffffffffffffffffffffffffffff1673ffffffffffffffffffffffffffffffffffffffff1681525050848681518110611f6757611f6661499e565b5b6020026020010181905250600185611f7f9190614743565b945050508080611f8e906149cd565b915050611d66565b5080935050505090565b60056020528060005260406000206000915090508060000160009054906101000a900460ff16908060010154908060020160009054906101000a900473ffffffffffffffffffffffffffffffffffffffff16908060030160009054906101000a900473ffffffffffffffffffffffffffffffffffffffff16908060040154908060050154908060060160009054906101000a900473ffffffffffffffffffffffffffffffffffffffff16908060070160009054906101000a900473ffffffffffffffffffffffffffffffffffffffff16905088565b60018060000160009054906101000a900473ffffffffffffffffffffffffffffffffffffffff16908060010160009054906101000a900473ffffffffffffffffffffffffffffffffffffffff16905082565b6060898984846120d88483836123ea565b612117576040517f08c379a000000000000000000000000000000000000000000000000000000000815260040161210e906144db565b60405180910390fd5b61212083612531565b61215f576040517f08c379a00000000000000000000000000000000000000000000000000000000081526004016121569061456d565b60405180910390fd5b600360009054906101000a900473ffffffffffffffffffffffffffffffffffffffff1673ffffffffffffffffffffffffffffffffffffffff163373ffffffffffffffffffffffffffffffffffffffff16146121ef576040517f08c379a00000000000000000000000000000000000000000000000000000000081526004016121e6906145ff565b60405180910390fd5b6121f88e6125cb565b86868080601f016020809104026020016040519081016040528093929190818152602001838380828437600081840152601f19601f820116905080830192505050505050509450505050509998505050505050505050565b60008114806122da575060008373ffffffffffffffffffffffffffffffffffffffff1663dd62ed3e30856040518363ffffffff1660e01b8152600401612297929190614a16565b602060405180830381865afa1580156122b4573d6000803e3d6000fd5b505050506040513d601f19601f820116820180604052508101906122d89190614319565b145b612319576040517f08c379a000000000000000000000000000000000000000000000000000000000815260040161231090614ab1565b60405180910390fd5b61239a8363095ea7b360e01b84846040516024016123389291906143d8565b604051602081830303815290604052907bffffffffffffffffffffffffffffffffffffffffffffffffffffffff19166020820180517bffffffffffffffffffffffffffffffffffffffffffffffffffffffff8381831617835250505050612fee565b505050565b60008060007fc5d2460186f7233c927e7db2dcc703c0e500b653ca82273b7bfad8045d85a47060001b9050833f91508082141580156123e157506000801b8214155b92505050919050565b600080600360009054906101000a900473ffffffffffffffffffffffffffffffffffffffff1673ffffffffffffffffffffffffffffffffffffffff16633f6c923a85856040518363ffffffff1660e01b815260040161244a929190614afe565b600060405180830381865afa158015612467573d6000803e3d6000fd5b505050506040513d6000823e3d601f19601f820116820180604052508101906124909190614e0f565b6060015190508073ffffffffffffffffffffffffffffffffffffffff16600560008773ffffffffffffffffffffffffffffffffffffffff1673ffffffffffffffffffffffffffffffffffffffff16815260200190815260200160002060020160009054906101000a900473ffffffffffffffffffffffffffffffffffffffff1673ffffffffffffffffffffffffffffffffffffffff16149150509392505050565b60007fa9214cc96615e0085d3bb077758db69497dc2dce3b2b1e97bc93c3d18d83efd38273ffffffffffffffffffffffffffffffffffffffff16637730599e6040518163ffffffff1660e01b8152600401602060405180830381865afa15801561259f573d6000803e3d6000fd5b505050506040513d601f19601f820116820180604052508101906125c39190614e6d565b149050919050565b6000600460009054906101000a900473ffffffffffffffffffffffffffffffffffffffff1673ffffffffffffffffffffffffffffffffffffffff1663e8e7e2d183306040518363ffffffff1660e01b815260040161262a929190614ebb565b602060405180830381865afa158015612647573d6000803e3d6000fd5b505050506040513d601f19601f8201168201806040525081019061266b9190614f1d565b90506000600b0b81600b0b14612685576126848261315f565b5b5050565b6000600460009054906101000a900473ffffffffffffffffffffffffffffffffffffffff1673ffffffffffffffffffffffffffffffffffffffff1663e8e7e2d183306040518363ffffffff1660e01b81526004016126e8929190614ebb565b602060405180830381865afa158015612705573d6000803e3d6000fd5b505050506040513d601f19601f820116820180604052508101906127299190614f1d565b90506000600b0b81600b0b1415612bc05760008273ffffffffffffffffffffffffffffffffffffffff166370a08231306040518263ffffffff1660e01b81526004016127759190614799565b602060405180830381865afa158015612792573d6000803e3d6000fd5b505050506040513d601f19601f820116820180604052508101906127b69190614319565b9050600160038111156127cc576127cb613b40565b5b600560008573ffffffffffffffffffffffffffffffffffffffff1673ffffffffffffffffffffffffffffffffffffffff16815260200190815260200160002060000160009054906101000a900460ff16600381111561282e5761282d613b40565b5b14156129fb578273ffffffffffffffffffffffffffffffffffffffff1663095ea7b3600560008673ffffffffffffffffffffffffffffffffffffffff1673ffffffffffffffffffffffffffffffffffffffff16815260200190815260200160002060020160009054906101000a900473ffffffffffffffffffffffffffffffffffffffff16836040518363ffffffff1660e01b81526004016128d19291906143d8565b6020604051808303816000875af11580156128f0573d6000803e3d6000fd5b505050506040513d601f19601f8201168201806040525081019061291491906142a0565b508273ffffffffffffffffffffffffffffffffffffffff1663a9059cbb600560008673ffffffffffffffffffffffffffffffffffffffff1673ffffffffffffffffffffffffffffffffffffffff16815260200190815260200160002060020160009054906101000a900473ffffffffffffffffffffffffffffffffffffffff16836040518363ffffffff1660e01b81526004016129b29291906143d8565b6020604051808303816000875af11580156129d1573d6000803e3d6000fd5b505050506040513d601f19601f820116820180604052508101906129f591906142a0565b50612bbe565b8273ffffffffffffffffffffffffffffffffffffffff1663095ea7b3600560008673ffffffffffffffffffffffffffffffffffffffff1673ffffffffffffffffffffffffffffffffffffffff16815260200190815260200160002060030160009054906101000a900473ffffffffffffffffffffffffffffffffffffffff16836040518363ffffffff1660e01b8152600401612a989291906143d8565b6020604051808303816000875af1158015612ab7573d6000803e3d6000fd5b505050506040513d601f19601f82011682018060405250810190612adb91906142a0565b508273ffffffffffffffffffffffffffffffffffffffff1663a9059cbb600560008673ffffffffffffffffffffffffffffffffffffffff1673ffffffffffffffffffffffffffffffffffffffff16815260200190815260200160002060030160009054906101000a900473ffffffffffffffffffffffffffffffffffffffff16836040518363ffffffff1660e01b8152600401612b799291906143d8565b6020604051808303816000875af1158015612b98573d6000803e3d6000fd5b505050506040513d601f19601f82011682018060405250810190612bbc91906142a0565b505b505b5050565b6000808690508073ffffffffffffffffffffffffffffffffffffffff16636352211e856040518263ffffffff1660e01b8152600401612c039190614f4a565b602060405180830381865afa158015612c20573d6000803e3d6000fd5b505050506040513d601f19601f82011682018060405250810190612c449190614f65565b73ffffffffffffffffffffffffffffffffffffffff163373ffffffffffffffffffffffffffffffffffffffff1614612ca8576040517f59dc379f00000000000000000000000000000000000000000000000000000000815260040160405180910390fd5b8073ffffffffffffffffffffffffffffffffffffffff1663081812fc856040518263ffffffff1660e01b8152600401612ce19190614f4a565b602060405180830381865afa158015612cfe573d6000803e3d6000fd5b505050506040513d601f19601f82011682018060405250810190612d229190614f65565b73ffffffffffffffffffffffffffffffffffffffff163073ffffffffffffffffffffffffffffffffffffffff1614612d86576040517fc19f17a900000000000000000000000000000000000000000000000000000000815260040160405180910390fd5b60008185604051602001612d9b929190614fb3565b604051602081830303815290604052805190602001209050600060405180602001612dc5906136df565b6020820181038252601f19601f820116604052509050818151602083016000f593507f000000000000000000000000000000000000000000000000000000000000000073ffffffffffffffffffffffffffffffffffffffff1663d412d344856040518263ffffffff1660e01b8152600401612e409190614799565b600060405180830381600087803b158015612e5a57600080fd5b505af1158015612e6e573d6000803e3d6000fd5b505050508373ffffffffffffffffffffffffffffffffffffffff1663767ab1228989888a88336040518763ffffffff1660e01b8152600401612eb596959493929190615020565b600060405180830381600087803b158015612ecf57600080fd5b505af1158015612ee3573d6000803e3d6000fd5b505050508273ffffffffffffffffffffffffffffffffffffffff166323b872dd3330896040518463ffffffff1660e01b8152600401612f2493929190614231565b600060405180830381600087803b158015612f3e57600080fd5b505af1158015612f52573d6000803e3d6000fd5b505050508373ffffffffffffffffffffffffffffffffffffffff16868473ffffffffffffffffffffffffffffffffffffffff167f4d2410e983f5be94775de3818f8a324dc42e066370ef1c9bfe96b4078f64a91f3389604051612fb69291906143d8565b60405180910390a450505095945050505050565b6001816000016000828254019250508190555050565b600081600001549050919050565b61300d8273ffffffffffffffffffffffffffffffffffffffff1661239f565b61304c576040517f08c379a0000000000000000000000000000000000000000000000000000000008152600401613043906150db565b60405180910390fd5b6000808373ffffffffffffffffffffffffffffffffffffffff16836040516130749190615137565b6000604051808303816000865af19150503d80600081146130b1576040519150601f19603f3d011682016040523d82523d6000602084013e6130b6565b606091505b5091509150816130fb576040517f08c379a00000000000000000000000000000000000000000000000000000000081526004016130f29061519a565b60405180910390fd5b600081511115613159578080602001905181019061311991906142a0565b613158576040517f08c379a000000000000000000000000000000000000000000000000000000000815260040161314f9061522c565b60405180910390fd5b5b50505050565b600073ffffffffffffffffffffffffffffffffffffffff16600560008373ffffffffffffffffffffffffffffffffffffffff1673ffffffffffffffffffffffffffffffffffffffff16815260200190815260200160002060030160009054906101000a900473ffffffffffffffffffffffffffffffffffffffff1673ffffffffffffffffffffffffffffffffffffffff161415613231576040517f08c379a00000000000000000000000000000000000000000000000000000000081526004016132289061411c565b60405180910390fd5b6001600381111561324557613244613b40565b5b600560008373ffffffffffffffffffffffffffffffffffffffff1673ffffffffffffffffffffffffffffffffffffffff16815260200190815260200160002060000160009054906101000a900460ff1660038111156132a7576132a6613b40565b5b146132e7576040517f08c379a00000000000000000000000000000000000000000000000000000000081526004016132de906152be565b60405180910390fd5b6000600560008373ffffffffffffffffffffffffffffffffffffffff1673ffffffffffffffffffffffffffffffffffffffff1681526020019081526020016000206005015490506000600560008473ffffffffffffffffffffffffffffffffffffffff1673ffffffffffffffffffffffffffffffffffffffff16815260200190815260200160002060030160009054906101000a900473ffffffffffffffffffffffffffffffffffffffff1690506000600560008573ffffffffffffffffffffffffffffffffffffffff1673ffffffffffffffffffffffffffffffffffffffff16815260200190815260200160002060020160009054906101000a900473ffffffffffffffffffffffffffffffffffffffff169050736c9fb0d5bd9429eb9cd96b85b81d872281771e6b73ffffffffffffffffffffffffffffffffffffffff1663a415bcad739a753f0f7886c9fbf63cf59d0d4423c5eface95b8560026000876040518663ffffffff1660e01b81526004016134679594939291906152de565b600060405180830381600087803b15801561348157600080fd5b505af1158015613495573d6000803e3d6000fd5b505050506002600560008673ffffffffffffffffffffffffffffffffffffffff1673ffffffffffffffffffffffffffffffffffffffff16815260200190815260200160002060000160006101000a81548160ff021916908360038111156134ff576134fe613b40565b5b0217905550739a753f0f7886c9fbf63cf59d0d4423c5eface95b73ffffffffffffffffffffffffffffffffffffffff1663095ea7b382856040518363ffffffff1660e01b81526004016135539291906143d8565b6020604051808303816000875af1158015613572573d6000803e3d6000fd5b505050506040513d601f19601f8201168201806040525081019061359691906142a0565b50739a753f0f7886c9fbf63cf59d0d4423c5eface95b73ffffffffffffffffffffffffffffffffffffffff1663a9059cbb82856040518363ffffffff1660e01b81526004016135e69291906143d8565b6020604051808303816000875af1158015613605573d6000803e3d6000fd5b505050506040513d601f19601f8201168201806040525081019061362991906142a0565b5050505050565b604051806101000160405280600060038111156136505761364f613b40565b5b815260200160008152602001600073ffffffffffffffffffffffffffffffffffffffff168152602001600073ffffffffffffffffffffffffffffffffffffffff1681526020016000815260200160008152602001600073ffffffffffffffffffffffffffffffffffffffff168152602001600073ffffffffffffffffffffffffffffffffffffffff1681525090565b610b6d8061533283390190565b6000604051905090565b600080fd5b600080fd5b6000819050919050565b61371381613700565b811461371e57600080fd5b50565b6000813590506137308161370a565b92915050565b600073ffffffffffffffffffffffffffffffffffffffff82169050919050565b600061376182613736565b9050919050565b61377181613756565b811461377c57600080fd5b50565b60008135905061378e81613768565b92915050565b600080604083850312156137ab576137aa6136f6565b5b60006137b985828601613721565b92505060206137ca8582860161377f565b9150509250929050565b60006137df82613756565b9050919050565b6137ef816137d4565b81146137fa57600080fd5b50565b60008135905061380c816137e6565b92915050565b6000819050919050565b61382581613812565b811461383057600080fd5b50565b6000813590506138428161381c565b92915050565b600080fd5b600080fd5b600080fd5b60008083601f84011261386d5761386c613848565b5b8235905067ffffffffffffffff81111561388a5761388961384d565b5b6020830191508360018202830111156138a6576138a5613852565b5b9250929050565b600080600080600080600080600060c08a8c0312156138cf576138ce6136f6565b5b60006138dd8c828d016137fd565b99505060206138ee8c828d0161377f565b98505060406138ff8c828d01613833565b97505060608a013567ffffffffffffffff8111156139205761391f6136fb565b5b61392c8c828d01613857565b965096505060808a013567ffffffffffffffff81111561394f5761394e6136fb565b5b61395b8c828d01613857565b945094505060a08a013567ffffffffffffffff81111561397e5761397d6136fb565b5b61398a8c828d01613857565b92509250509295985092959850929598565b600081519050919050565b600082825260208201905092915050565b60005b838110156139d65780820151818401526020810190506139bb565b838111156139e5576000848401525b50505050565b6000601f19601f8301169050919050565b6000613a078261399c565b613a1181856139a7565b9350613a218185602086016139b8565b613a2a816139eb565b840191505092915050565b60006020820190508181036000830152613a4f81846139fc565b905092915050565b600080600080600080600060a0888a031215613a7657613a756136f6565b5b6000613a848a828b016137fd565b9750506020613a958a828b0161377f565b9650506040613aa68a828b01613833565b955050606088013567ffffffffffffffff811115613ac757613ac66136fb565b5b613ad38a828b01613857565b9450945050608088013567ffffffffffffffff811115613af657613af56136fb565b5b613b028a828b01613857565b925092505092959891949750929550565b600060208284031215613b2957613b286136f6565b5b6000613b3784828501613721565b91505092915050565b7f4e487b7100000000000000000000000000000000000000000000000000000000600052602160045260246000fd5b60048110613b8057613b7f613b40565b5b50565b6000819050613b9182613b6f565b919050565b6000613ba182613b83565b9050919050565b613bb181613b96565b82525050565b613bc081613700565b82525050565b613bcf81613756565b82525050565b600061010082019050613beb600083018b613ba8565b613bf8602083018a613bb7565b613c056040830189613bc6565b613c126060830188613bc6565b613c1f6080830187613bb7565b613c2c60a0830186613bb7565b613c3960c0830185613bc6565b613c4660e0830184613bc6565b9998505050505050505050565b600080fd5b7f4e487b7100000000000000000000000000000000000000000000000000000000600052604160045260246000fd5b613c90826139eb565b810181811067ffffffffffffffff82111715613caf57613cae613c58565b5b80604052505050565b6000613cc26136ec565b9050613cce8282613c87565b919050565b600067ffffffffffffffff821115613cee57613ced613c58565b5b613cf7826139eb565b9050602081019050919050565b82818337600083830152505050565b6000613d26613d2184613cd3565b613cb8565b905082815260208101848484011115613d4257613d41613c53565b5b613d4d848285613d04565b509392505050565b600082601f830112613d6a57613d69613848565b5b8135613d7a848260208601613d13565b91505092915050565b60008060008060008060c08789031215613da057613d9f6136f6565b5b6000613dae89828a0161377f565b965050602087013567ffffffffffffffff811115613dcf57613dce6136fb565b5b613ddb89828a01613d55565b955050604087013567ffffffffffffffff811115613dfc57613dfb6136fb565b5b613e0889828a01613d55565b9450506060613e1989828a01613721565b9350506080613e2a89828a01613721565b92505060a0613e3b89828a01613721565b9150509295509295509295565b600060208284031215613e5e57613e5d6136f6565b5b6000613e6c8482850161377f565b91505092915050565b600081519050919050565b600082825260208201905092915050565b6000819050602082019050919050565b613eaa81613b96565b82525050565b613eb981613700565b82525050565b613ec881613756565b82525050565b61010082016000820151613ee56000850182613ea1565b506020820151613ef86020850182613eb0565b506040820151613f0b6040850182613ebf565b506060820151613f1e6060850182613ebf565b506080820151613f316080850182613eb0565b5060a0820151613f4460a0850182613eb0565b5060c0820151613f5760c0850182613ebf565b5060e0820151613f6a60e0850182613ebf565b50505050565b6000613f7c8383613ece565b6101008301905092915050565b6000602082019050919050565b6000613fa182613e75565b613fab8185613e80565b9350613fb683613e91565b8060005b83811015613fe7578151613fce8882613f70565b9750613fd983613f89565b925050600181019050613fba565b5085935050505092915050565b6000602082019050818103600083015261400e8184613f96565b905092915050565b6000819050919050565b600061403b61403661403184613736565b614016565b613736565b9050919050565b600061404d82614020565b9050919050565b600061405f82614042565b9050919050565b61406f81614054565b82525050565b600061408082614042565b9050919050565b61409081614075565b82525050565b60006040820190506140ab6000830185614066565b6140b86020830184614087565b9392505050565b600082825260208201905092915050565b7f796f7520646f206e6f74206861766520612064656c656761746f722079657400600082015250565b6000614106601f836140bf565b9150614111826140d0565b602082019050919050565b60006020820190508181036000830152614135816140f9565b9050919050565b7f6c6f616e2061677265656d656e742073686f756c6420626520636c6f73656400600082015250565b6000614172601f836140bf565b915061417d8261413c565b602082019050919050565b600060208201905081810360008301526141a181614165565b9050919050565b7f4e487b7100000000000000000000000000000000000000000000000000000000600052601160045260246000fd5b60006141e282613700565b91506141ed83613700565b9250817fffffffffffffffffffffffffffffffffffffffffffffffffffffffffffffffff0483118215151615614226576142256141a8565b5b828202905092915050565b60006060820190506142466000830186613bc6565b6142536020830185613bc6565b6142606040830184613bb7565b949350505050565b60008115159050919050565b61427d81614268565b811461428857600080fd5b50565b60008151905061429a81614274565b92915050565b6000602082840312156142b6576142b56136f6565b5b60006142c48482850161428b565b91505092915050565b60006060820190506142e26000830186613bc6565b6142ef6020830185613bb7565b6142fc6040830184613bc6565b949350505050565b6000815190506143138161370a565b92915050565b60006020828403121561432f5761432e6136f6565b5b600061433d84828501614304565b91505092915050565b7f6c6f616e2061677265656d656e742073686f756c6420626520696e697469617460008201527f6564000000000000000000000000000000000000000000000000000000000000602082015250565b60006143a26022836140bf565b91506143ad82614346565b604082019050919050565b600060208201905081810360008301526143d181614395565b9050919050565b60006040820190506143ed6000830185613bc6565b6143fa6020830184613bb7565b9392505050565b6000819050919050565b600061ffff82169050919050565b600061443461442f61442a84614401565b614016565b61440b565b9050919050565b61444481614419565b82525050565b600060808201905061445f6000830187613bc6565b61446c6020830186613bb7565b6144796040830185613bc6565b614486606083018461443b565b95945050505050565b7f5265646972656374416c6c3a206e6f7420657870656374656420746f6b656e00600082015250565b60006144c5601f836140bf565b91506144d08261448f565b602082019050919050565b600060208201905081810360008301526144f4816144b8565b9050919050565b7f5265646972656374416c6c3a206f6e6c7920434641763120737570706f72746560008201527f6400000000000000000000000000000000000000000000000000000000000000602082015250565b60006145576021836140bf565b9150614562826144fb565b604082019050919050565b600060208201905081810360008301526145868161454a565b9050919050565b7f5265646972656374416c6c3a20737570706f7274206f6e6c79206f6e6520686f60008201527f7374000000000000000000000000000000000000000000000000000000000000602082015250565b60006145e96022836140bf565b91506145f48261458d565b604082019050919050565b60006020820190508181036000830152614618816145dc565b9050919050565b7f556e737570706f727465642063616c6c6261636b202d204265666f726520416760008201527f7265656d656e7420437265617465640000000000000000000000000000000000602082015250565b600061467b602f836140bf565b91506146868261461f565b604082019050919050565b600060208201905081810360008301526146aa8161466e565b9050919050565b7f556e737570706f727465642063616c6c6261636b202d20204265666f7265204160008201527f677265656d656e74205465726d696e6174656400000000000000000000000000602082015250565b600061470d6033836140bf565b9150614718826146b1565b604082019050919050565b6000602082019050818103600083015261473c81614700565b9050919050565b600061474e82613700565b915061475983613700565b9250827fffffffffffffffffffffffffffffffffffffffffffffffffffffffffffffffff0382111561478e5761478d6141a8565b5b828201905092915050565b60006020820190506147ae6000830184613bc6565b92915050565b7f556e737570706f727465642063616c6c6261636b202d204265666f726520416760008201527f7265656d656e7420757064617465640000000000000000000000000000000000602082015250565b6000614810602f836140bf565b915061481b826147b4565b604082019050919050565b6000602082019050818103600083015261483f81614803565b9050919050565b7f6e6f7420616e20616c6c6f77656420626f72726f776572000000000000000000600082015250565b600061487c6017836140bf565b915061488782614846565b602082019050919050565b600060208201905081810360008301526148ab8161486f565b9050919050565b7f6c6f616e2061677265656d656e74206973206e6f742061637469766500000000600082015250565b60006148e8601c836140bf565b91506148f3826148b2565b602082019050919050565b60006020820190508181036000830152614917816148db565b9050919050565b6000819050919050565b600061494361493e6149398461491e565b614016565b613700565b9050919050565b61495381614928565b82525050565b600060808201905061496e6000830187613bc6565b61497b6020830186613bb7565b614988604083018561494a565b6149956060830184613bc6565b95945050505050565b7f4e487b7100000000000000000000000000000000000000000000000000000000600052603260045260246000fd5b60006149d882613700565b91507fffffffffffffffffffffffffffffffffffffffffffffffffffffffffffffffff821415614a0b57614a0a6141a8565b5b600182019050919050565b6000604082019050614a2b6000830185613bc6565b614a386020830184613bc6565b9392505050565b7f5361666545524332303a20617070726f76652066726f6d206e6f6e2d7a65726f60008201527f20746f206e6f6e2d7a65726f20616c6c6f77616e636500000000000000000000602082015250565b6000614a9b6036836140bf565b9150614aa682614a3f565b604082019050919050565b60006020820190508181036000830152614aca81614a8e565b9050919050565b6000614add83856139a7565b9350614aea838584613d04565b614af3836139eb565b840190509392505050565b60006020820190508181036000830152614b19818486614ad1565b90509392505050565b600080fd5b600080fd5b600060ff82169050919050565b614b4281614b2c565b8114614b4d57600080fd5b50565b600081519050614b5f81614b39565b92915050565b600081519050614b7481613768565b92915050565b60007fffffffff0000000000000000000000000000000000000000000000000000000082169050919050565b614baf81614b7a565b8114614bba57600080fd5b50565b600081519050614bcc81614ba6565b92915050565b600067ffffffffffffffff821115614bed57614bec613c58565b5b614bf6826139eb565b9050602081019050919050565b6000614c16614c1184614bd2565b613cb8565b905082815260208101848484011115614c3257614c31613c53565b5b614c3d8482856139b8565b509392505050565b600082601f830112614c5a57614c59613848565b5b8151614c6a848260208601614c03565b91505092915050565b6000819050919050565b614c8681614c73565b8114614c9157600080fd5b50565b600081519050614ca381614c7d565b92915050565b6000614cb482613756565b9050919050565b614cc481614ca9565b8114614ccf57600080fd5b50565b600081519050614ce181614cbb565b92915050565b60006101608284031215614cfe57614cfd614b22565b5b614d09610160613cb8565b90506000614d1984828501614b50565b6000830152506020614d2d84828501614b50565b6020830152506040614d4184828501614304565b6040830152506060614d5584828501614b65565b6060830152506080614d6984828501614bbd565b60808301525060a082015167ffffffffffffffff811115614d8d57614d8c614b27565b5b614d9984828501614c45565b60a08301525060c0614dad84828501614304565b60c08301525060e0614dc184828501614304565b60e083015250610100614dd684828501614c94565b61010083015250610120614dec84828501614b65565b61012083015250610140614e0284828501614cd2565b6101408301525092915050565b600060208284031215614e2557614e246136f6565b5b600082015167ffffffffffffffff811115614e4357614e426136fb565b5b614e4f84828501614ce7565b91505092915050565b600081519050614e678161381c565b92915050565b600060208284031215614e8357614e826136f6565b5b6000614e9184828501614e58565b91505092915050565b6000614ea582614042565b9050919050565b614eb581614e9a565b82525050565b6000604082019050614ed06000830185614eac565b614edd6020830184613bc6565b9392505050565b600081600b0b9050919050565b614efa81614ee4565b8114614f0557600080fd5b50565b600081519050614f1781614ef1565b92915050565b600060208284031215614f3357614f326136f6565b5b6000614f4184828501614f08565b91505092915050565b6000602082019050614f5f6000830184613bb7565b92915050565b600060208284031215614f7b57614f7a6136f6565b5b6000614f8984828501614b65565b91505092915050565b6000614f9d82614042565b9050919050565b614fad81614f92565b82525050565b6000604082019050614fc86000830185614fa4565b614fd56020830184613bb7565b9392505050565b600081519050919050565b6000614ff282614fdc565b614ffc81856140bf565b935061500c8185602086016139b8565b615015816139eb565b840191505092915050565b600060c082019050818103600083015261503a8189614fe7565b9050818103602083015261504e8188614fe7565b905061505d6040830187613bb7565b61506a6060830186613bb7565b6150776080830185613bc6565b61508460a0830184613bc6565b979650505050505050565b7f5361666545524332303a2063616c6c20746f206e6f6e2d636f6e747261637400600082015250565b60006150c5601f836140bf565b91506150d08261508f565b602082019050919050565b600060208201905081810360008301526150f4816150b8565b9050919050565b600081905092915050565b60006151118261399c565b61511b81856150fb565b935061512b8185602086016139b8565b80840191505092915050565b60006151438284615106565b915081905092915050565b7f5361666545524332303a206c6f772d6c6576656c2063616c6c206661696c6564600082015250565b60006151846020836140bf565b915061518f8261514e565b602082019050919050565b600060208201905081810360008301526151b381615177565b9050919050565b7f5361666545524332303a204552433230206f7065726174696f6e20646964206e60008201527f6f74207375636365656400000000000000000000000000000000000000000000602082015250565b6000615216602a836140bf565b9150615221826151ba565b604082019050919050565b6000602082019050818103600083015261524581615209565b9050919050565b7f6c6f616e2061677265656d656e742073686f756c6420626520696e616374697660008201527f6500000000000000000000000000000000000000000000000000000000000000602082015250565b60006152a86021836140bf565b91506152b38261524c565b604082019050919050565b600060208201905081810360008301526152d78161529b565b9050919050565b600060a0820190506152f36000830188613bc6565b6153006020830187613bb7565b61530d604083018661494a565b61531a606083018561443b565b6153276080830184613bc6565b969550505050505056fe608060405234801561001057600080fd5b50610b4d806100206000396000f3fe60806040526004361061004e5760003560e01c806317d70f7c146100675780633c130d90146100925780634a0687ef146100bd578063767ab122146100e65780639d76ea581461010f5761005d565b3661005d5761005b61013a565b005b61006561013a565b005b34801561007357600080fd5b5061007c610154565b604051610089919061050c565b60405180910390f35b34801561009e57600080fd5b506100a761015a565b6040516100b491906105c0565b60405180910390f35b3480156100c957600080fd5b506100e460048036038101906100df9190610654565b610204565b005b3480156100f257600080fd5b5061010d600480360381019061010891906107e2565b6102fe565b005b34801561011b57600080fd5b5061012461047c565b60405161013191906108b6565b60405180910390f35b6101426104a2565b61015261014d6104a4565b6104cd565b565b60205481565b6060602160009054906101000a900473ffffffffffffffffffffffffffffffffffffffff1673ffffffffffffffffffffffffffffffffffffffff1663c87b56dd6020546040518263ffffffff1660e01b81526004016101b9919061050c565b600060405180830381865afa1580156101d6573d6000803e3d6000fd5b505050506040513d6000823e3d601f19601f820116820180604052508101906101ff9190610941565b905090565b600073ffffffffffffffffffffffffffffffffffffffff168173ffffffffffffffffffffffffffffffffffffffff16141561026b576040517fd92e233d00000000000000000000000000000000000000000000000000000000815260040160405180910390fd5b600073ffffffffffffffffffffffffffffffffffffffff1661028b6104a4565b73ffffffffffffffffffffffffffffffffffffffff16146102d8576040517f5daa87a000000000000000000000000000000000000000000000000000000000815260040160405180910390fd5b807f360894a13ba1a3210667c828492db98dca3e2076cc3735a920a3ca505d382bbc5550565b8260208190555081602160006101000a81548173ffffffffffffffffffffffffffffffffffffffff021916908373ffffffffffffffffffffffffffffffffffffffff1602179055503073ffffffffffffffffffffffffffffffffffffffff166342fe098060008089896040518563ffffffff1660e01b81526004016103869493929190610a31565b600060405180830381600087803b1580156103a057600080fd5b505af11580156103b4573d6000803e3d6000fd5b505050503073ffffffffffffffffffffffffffffffffffffffff1663c68d42838286600067ffffffffffffffff8111156103f1576103f061068b565b5b6040519080825280601f01601f1916602001820160405280156104235781602001600182028036833780820191505090505b506040518463ffffffff1660e01b815260040161044293929190610ad9565b600060405180830381600087803b15801561045c57600080fd5b505af1158015610470573d6000803e3d6000fd5b50505050505050505050565b602160009054906101000a900473ffffffffffffffffffffffffffffffffffffffff1681565b565b60007f360894a13ba1a3210667c828492db98dca3e2076cc3735a920a3ca505d382bbc54905090565b3660008037600080366000845af43d6000803e80600081146104ee573d6000f35b3d6000fd5b6000819050919050565b610506816104f3565b82525050565b600060208201905061052160008301846104fd565b92915050565b600081519050919050565b600082825260208201905092915050565b60005b83811015610561578082015181840152602081019050610546565b83811115610570576000848401525b50505050565b6000601f19601f8301169050919050565b600061059282610527565b61059c8185610532565b93506105ac818560208601610543565b6105b581610576565b840191505092915050565b600060208201905081810360008301526105da8184610587565b905092915050565b6000604051905090565b600080fd5b600080fd5b600073ffffffffffffffffffffffffffffffffffffffff82169050919050565b6000610621826105f6565b9050919050565b61063181610616565b811461063c57600080fd5b50565b60008135905061064e81610628565b92915050565b60006020828403121561066a576106696105ec565b5b60006106788482850161063f565b91505092915050565b600080fd5b600080fd5b7f4e487b7100000000000000000000000000000000000000000000000000000000600052604160045260246000fd5b6106c382610576565b810181811067ffffffffffffffff821117156106e2576106e161068b565b5b80604052505050565b60006106f56105e2565b905061070182826106ba565b919050565b600067ffffffffffffffff8211156107215761072061068b565b5b61072a82610576565b9050602081019050919050565b82818337600083830152505050565b600061075961075484610706565b6106eb565b90508281526020810184848401111561077557610774610686565b5b610780848285610737565b509392505050565b600082601f83011261079d5761079c610681565b5b81356107ad848260208601610746565b91505092915050565b6107bf816104f3565b81146107ca57600080fd5b50565b6000813590506107dc816107b6565b92915050565b60008060008060008060c087890312156107ff576107fe6105ec565b5b600087013567ffffffffffffffff81111561081d5761081c6105f1565b5b61082989828a01610788565b965050602087013567ffffffffffffffff81111561084a576108496105f1565b5b61085689828a01610788565b955050604061086789828a016107cd565b945050606061087889828a016107cd565b935050608061088989828a0161063f565b92505060a061089a89828a0161063f565b9150509295509295509295565b6108b081610616565b82525050565b60006020820190506108cb60008301846108a7565b92915050565b60006108e46108df84610706565b6106eb565b905082815260208101848484011115610900576108ff610686565b5b61090b848285610543565b509392505050565b600082601f83011261092857610927610681565b5b81516109388482602086016108d1565b91505092915050565b600060208284031215610957576109566105ec565b5b600082015167ffffffffffffffff811115610975576109746105f1565b5b61098184828501610913565b91505092915050565b6000819050919050565b60006109af6109aa6109a5846105f6565b61098a565b6105f6565b9050919050565b60006109c182610994565b9050919050565b60006109d3826109b6565b9050919050565b6109e3816109c8565b82525050565b6000819050919050565b600060ff82169050919050565b6000610a1b610a16610a11846109e9565b61098a565b6109f3565b9050919050565b610a2b81610a00565b82525050565b6000608082019050610a4660008301876109da565b610a536020830186610a22565b8181036040830152610a658185610587565b90508181036060830152610a798184610587565b905095945050505050565b600081519050919050565b600082825260208201905092915050565b6000610aab82610a84565b610ab58185610a8f565b9350610ac5818560208601610543565b610ace81610576565b840191505092915050565b6000606082019050610aee60008301866108a7565b610afb60208301856104fd565b8181036040830152610b0d8184610aa0565b905094935050505056fea26469706673582212201d0d0de4dd2a9e9558b92ba6d8b48da3d259aaa947857984b97cfd5fd60762b764736f6c634300080a0033a2646970667358221220cbac66314608d63092ff6c6b37dc1114c38b5ccc0bc41e34e715589a9d5a6d2b64736f6c634300080a0033",
  "linkReferences": {},
  "deployedLinkReferences": {}
}